:020000040000FA
:040000007EEF04F09B
:1000F0001200120012008CEF04F084EF04F002C032
:1001000018F003C019F0120002C01CF003C01DF06B
:10011000120002C01AF003C01BF01200B2EC00F093
:1001200090EF00F07EEF04F039010050E66F0150CF
:10013000E66FE58300F000F012001504D8A4A3EFE9
:1001400000F0A5EF00F0A6EF00F0FF00120039016B
:10015000A3B7ADEF00F0B0EF00F0010EB1EF00F08B
:10016000000E1200E7EC00F045EC01F0BDEC00F0F1
:100170009CEC01F00FEC01F01200620E3901D96F16
:10018000000EDB6F000EDD6F080EDF6F000EDE6FFE
:100190001200026E3901A3A9D0EF00F0D2EF00F0F7
:1001A000CAEF00F060000BF0EAFD120000EE60F014
:1001B000890EEE6AE806FDE100EE10F0080EEE6A28
:1001C000E806FDE1000EF86E00018EEF00F0000E73
:1001D0003901C06F000EC16F000EC26F000EC36FF9
:1001E000000EC46F000EC56F000EC66F000EC76F05
:1001F0001200000E026E3901A3A901EF01F003EF16
:1002000001F00DEF01F03D01F2AB09EF01F00BEF52
:1002100001F00DEF01F0010E026E02501200000E0F
:10022000006E000E016E26EC01F0E806D8A41BEF6C
:1002300001F01DEF01F01FEF01F0F3EC03F0000EF1
:10024000FC6E000EE06E80EF04F01200000E036EF4
:100250003D01F8AD2EEF01F030EF01F033EF01F08A
:10026000010E44EF01F0340E026EF20EE82EFED7BE
:10027000022EFCD7032A630E036441EF01F043EF23
:1002800001F028EF01F0000E1200000EBA6E000E11
:10029000BB6E000EBC6EC268C368BF0EC46E7F0E1C
:1002A0003A01606F50694069000E816F000E516F16
:1002B000000E416F000E616F000E426F000E526F14
:1002C000000E626F436953696369446954696469E4
:1002D000080E846F130E166F170EE76F1200600082
:1002E00097F1F6FF60009BF1F7FF60009FF1F8FFC8
:1002F000C00E3901E56F000E046E8AEF01F00900AF
:10030000690E0424D96EDA6A000EDA226F00D7FF74
:10031000DFFF042A0450026E036A00016151025C8F
:1003200062510358D8A097EF01F099EF01F07FEFE9
:1003300001F06151090F1200000E3D01EC6F000E3B
:10034000ED6F000EEE6F000EEF6F000EF06F000EFF
:10035000F16FF00EF26F800EF36F000EF46FA00ECF
:10036000F56F010EF66F000EF76F000EF86F000EBE
:10037000F96F000EFA6FF20E026E000E036E84EC3F
:1003800000F0F40E026E000E036E89EC00F0F00E29
:10039000026E000E036E7FEC00F0000E146E120071
:1003A000600097F1F6FF60009BF1F7FF60009FF19E
:1003B000F8FF800E3901E56F000E136E000E126E0D
:1003C00061C006F062C007F0000E096E000E086EF4
:1003D000F8EF01F00900F550026E036A021C046E8A
:1003E000031C056E0450122605501322084A092AE0
:1003F0000650085C07500958D8A001EF02F003EF3F
:1004000002F0EAEF01F012C069F0135000016A6FC8
:100410000B0E1200600097F1F6FF60009BF1F7FFF2
:1004200060009FF1F8FF000E036E000E026E38EFC1
:1004300002F0000EF65C000EF758010EF858D8A036
:1004400024EF02F026EF02F02BEF02F0FE0E696FB0
:100450000A0E4CEF02F0940E3901E56F94EC00F0B7
:10046000800EF626000EF722000EF822024A032A1A
:1004700000016151025C62510358D8A042EF02F0C2
:1004800044EF02F019EF02F0010E696F000E636F86
:10049000000E646F28EF02F01200010E0001696F78
:1004A000010E6A6F000E6B6F010E6C6F000E6D6FA8
:1004B000000E6E6F3F0EF86EF768FE0EF66EC00E01
:1004C0003901E56F09006F00D4FF6FF009006F007C
:1004D000D4FF70F0000E0001716F000E726F800E7D
:1004E000736F800E746F300EF86E000EF76E000E94
:1004F000F66E0C0E026E0900690E0224D96EDA6ADD
:10050000000EDA226F00D7FFDFFF022A0F0E02640F
:100510008CEF02F08EEF02F07BEF02F0190E12006A
:10052000600097F1F6FF60009BF1F7FF60009FF11C
:10053000F8FF100EF65C000EF758200EF858D8A001
:10054000A4EF02F0A6EF02F0ABEF02F0C40E390107
:10055000E56FAEEF02F0840E3901E56F000E046E18
:10056000BFEF02F0690E0424D96EDA6A000EDA22B7
:10057000DF50F56E0C0094EC00F0F62A042A0450CB
:10058000026E036A00016151025C62510358D8A0F7
:10059000CCEF02F0CEEF02F0B2EF02F0010E696F85
:1005A000000E006E000E016E0A0E12003901A3A7A4
:1005B000DCEF02F0DEEF02F0D6EF02F0000E146E78
:1005C0003D01F9A7E6EF02F0E8EF02F0F6EF02F0E6
:1005D000148202D8F6EF02F00500FA6E1C50FD6E90
:1005E0001D50FE6EF850FF6EFA5012003D01F9A347
:1005F000FCEF02F0FEEF02F00CEF03F0148402D8DF
:100600000CEF03F00500FA6E1A50FD6E1B50FE6EE3
:10061000F850FF6EFA5012001450D8B412EF03F0E5
:1006200014EF03F021EF03F002D821EF03F00500EF
:10063000FA6E1850FD6E1950FE6EF850FF6EFA50AB
:1006400012003D01E851120060008CF100F06000E2
:1006500090F101F057EF03F04DEC02F00C6E81EFDA
:1006600003F083EC03F00C6E81EF03F00AEC02F070
:100670000C6E81EF03F06FEC01F00C6E81EF03F074
:1006800090EC02F00C6E81EF03F0D0EC01F00C6EF8
:1006900081EF03F0010E696F010E156E090E0C6EED
:1006A00081EF03F069690A0E0C6E81EF03F000011F
:1006B00060510A6E0B6A0B50000AD8B462EF03F067
:1006C00052EF03F00A50000AD8B42CEF03F0020AEC
:1006D000D8B431EF03F0010AD8B436EF03F0050ABD
:1006E000D8B43BEF03F0010AD8B440EF03F00F0A8F
:1006F000D8B445EF03F0010AD8B44AEF03F052EF43
:1007000003F00C501200600097F1F6FF60009BF1BF
:10071000F7FF60009FF1F8FFA40E3901E56F000EAE
:10072000076E000E066EDEEF03F0690E0624D96E2A
:10073000000E0720DA6EDF50F56E000EF65C000E3C
:10074000F758010EF858D8A0A8EF03F0AAEF03F06D
:10075000AFEF03F0FE0E696F0A0EF2EF03F00D002B
:100760006F00D8FF02F07F0E0216D8B4BAEF03F084
:10077000BCEF03F0D8EF03F0FF0E026EFF0E036E26
:1007800020EE61F06F0078FF04F06F0074FF05F059
:1007900002500426035005220650041807E10750B2
:1007A0000518D8A4D6EF03F0D8EF03F0DCEF03F080
:1007B0000A0094EC00F00900064A072A0001615182
:1007C000065C62510758D8A0E8EF03F0EAEF03F0A7
:1007D00095EF03F0010E696F000E006E000E016EC2
:1007E000ACEF03F01200F9EC00F00009D8B4FBEF15
:1007F00003F0FDEF03F0F3EF03F0690EC9EC00F036
:100800003D01F9AF06EF04F008EF04F000EF04F04B
:100810009DEC00F0000E0F6E090E0E6E4EEF04F010
:10082000A7EC00F00009D8B418EF04F01AEF04F0B8
:100830004EEF04F0D6EC02F00D6E600E0F24D96E70
:10084000DA6A000EDA22600037F0DFFF0F2A040EAA
:100850000F18D8A42EEF04F030EF04F04EEF04F0A0
:10086000020E00016019D8B438EF04F03AEF04F03A
:100870004CEF04F0050E6019D8B441EF04F043EFDB
:1008800004F04CEF04F0070E6019D8A44AEF04F00E
:100890004CEF04F04EEF04F061510E260E500F5C49
:1008A000D8A055EF04F057EF04F010EF04F024EC5B
:1008B00003F00E6E000E0F6E72EF04F0F9EC00F014
:1008C0000009D8B466EF04F068EF04F072EF04F0AA
:1008D000600E0F24D96EDA6A000EDA22DF50C9ECFE
:1008E00000F00F2A0E500F5CD8A079EF04F07BEFD8
:1008F00004F05EEF04F000EF04F01200D6EF00F019
:020000040020DA
:10000000FF0FFF0FFF0FFF0FFF0FFF0FFF0FFF0F80
:020000040030CA
:0A0000008CFFF7FF9FFFFFFFFFFFDB
:00000001FF
