:020000040000FA
:040000007EEF04F09B
:100082001200120012008CEF04F084EF04F002C0A0
:1000920017F003C018F0120002C01BF003C01CF0DE
:1000A200120002C019F003C01AF012007BEC00F03B
:1000B20059EF00F07EEF04F039010050E66F015075
:1000C200E66FE58300F000F012001404D8A46CEF90
:1000D20000F06EEF00F06FEF00F0FF001200390148
:1000E200A3B776EF00F079EF00F0010E7AEF00F09F
:1000F200000E1200B0EC00F0EFEC00F086EC00F025
:1001020074EC01F0D8EC00F01200620E3901D96FE4
:10011200000EDB6F000EDD6F080EDF6F000EDE6F6C
:100122001200026E3901A3A999EF00F09BEF00F0D3
:1001320093EF00F060000BF0EAFD120000EE60F0B9
:10014200890EEE6AE806FDE100EE0FF0080EEE6A97
:10015200E806FDE1000EF86E000157EF00F0000E18
:100162003901C06F000EC16F000EC26F000EC36F67
:10017200000EC46F000EC56F000EC66F000EC76F73
:100182001200000E026E3901A3A9CAEF00F0CCEFF3
:1001920000F0D6EF00F03D01F2ABD2EF00F0D4EF69
:1001A20000F0D6EF00F0010E026E02501200000EB7
:1001B200006E000E016E1AEC01F0E806D8A4E4EF1E
:1001C20000F0E6EF00F0E8EF00F0DBEC03F0000EE9
:1001D200FC6E000EE06E80EF04F01200000EBA6EAC
:1001E200000EBB6E000EBC6EC268DF0EC36EBF0E89
:1001F200C46E7F0E3A01606F50694069000E816FD4
:10020200000E516F000E416F000E616F000E426FC3
:10021200000E526F000E626F43695369636944694D
:1002220054696469080E846F130E166F170EE76F18
:100232001200000E046E3D01F8AD22EF01F024EF32
:1002420001F027EF01F0010E46EF01F0340E026ECD
:10025200F20EE82EFED7022EFCD7042A630E0464A7
:1002620035EF01F037EF01F01CEF01F0BB8A050E0C
:10027200036E0F0E026EF10EE82EFED7022EFCD791
:10028200032EFAD700F0BB9A000E1200600097F11D
:10029200F6FF60009BF1F7FF60009FF1F8FFC00ED0
:1002A2003901E56F000E046E62EF01F00900690E7C
:1002B2000424D96EDA6A000EDA226F00D7FFDFFF5C
:1002C200042A0450026E036A00016151025C625109
:1002D2000358D8A06FEF01F071EF01F057EF01F072
:1002E2006151090F1200000E3D01EC6F000EED6F1F
:1002F200000EEE6F000EEF6F000EF06F000EF16F4A
:10030200F00EF26F800EF36F000EF46FA00EF56F19
:10031200010EF66F000EF76F000EF86F000EF96F08
:10032200000EFA6F840E026E000E036E4DEC00F0AA
:10033200860E026E000E036E52EC00F0820E026E0A
:10034200000E036E48EC00F0000E136E1200600007
:1003520097F1F6FF60009BF1F7FF60009FF1F8FF55
:10036200800E3901E56F000E126E000E116E61C033
:1003720002F062C003F0000E056E000E046ECEEFB6
:1003820001F00900F5501126000E12220900F55065
:100392001226020E0426000E05220250045C0350AF
:1003A2000558D8A0D7EF01F0D9EF01F0C2EF01F064
:1003B20011C069F0125000016A6F0B0E120060004A
:1003C20097F1F6FF60009BF1F7FF60009FF1F8FFE5
:1003D200000E036E000E026E0EEF02F0000EF65CCF
:1003E200000EF758010EF858D8A0FAEF01F0FCEF12
:1003F20001F001EF02F0FE0E696F0A0E22EF02F029
:10040200940E3901E56F5DEC00F0800EF626000EC9
:10041200F722000EF822024A032A00016151025C0F
:1004220062510358D8A018EF02F01AEF02F0EFEF72
:1004320001F0010E696F000E636F000E646FFEEF34
:1004420001F01200010E0001696F010E6A6F000EC9
:100452006B6F010E6C6F000E6D6F000E6E6F3F0EB4
:10046200F86EF768FE0EF66EC00E3901E56F0900F0
:100472006F00D4FF6FF009006F00D4FF70F0000E20
:100482000001716F000E726F800E736F800E746FB9
:10049200300EF86E000EF76E000EF66E0C0E026E47
:1004A2000900690E0224D96EDA6A000EDA226F00A0
:1004B200D7FFDFFF022A0F0E026462EF02F064EF41
:1004C20002F051EF02F0190E1200600097F1F6FFF0
:1004D20060009BF1F7FF60009FF1F8FF100EF65CE1
:1004E200000EF758200EF858D8A07AEF02F07CEFF1
:1004F20002F081EF02F0C40E3901E56F84EF02F0E1
:10050200840E3901E56F000E046E95EF02F0690E5C
:100512000424D96EDA6A000EDA22DF50F56E0C007E
:100522005DEC00F0F62A042A0450026E036A000110
:100532006151025C62510358D8A0A2EF02F0A4EF0D
:1005420002F088EF02F0010E696F000E006E000EDD
:10055200016E0A0E12003901A3A7B2EF02F0B4EF46
:1005620002F0ACEF02F0000E136E3D01F9A7BCEFF2
:1005720002F0BEEF02F0CCEF02F0138202D8CCEF11
:1005820002F00500FA6E1B50FD6E1C50FE6EF85014
:10059200FF6EFA5012003D01F9A3D2EF02F0D4EF40
:1005A20002F0E2EF02F0138402D8E2EF02F005005B
:1005B200FA6E1950FD6E1A50FE6EF850FF6EFA5028
:1005C20012001350D8B4E8EF02F0EAEF02F0F7EFAE
:1005D20002F002D8F7EF02F00500FA6E1750FD6E36
:1005E2001850FE6EF850FF6EFA5012003D01E851AD
:1005F200120060008CF100F0600090F101F02DEF2C
:1006020003F023EC02F00A6E57EF03F059EC03F00B
:100612000A6E57EF03F0E0EC01F00A6E57EF03F0B9
:1006220047EC01F00A6E57EF03F066EC02F00A6E37
:1006320057EF03F0A8EC01F00A6E57EF03F0010E3A
:10064200696F010E146E090E0A6E57EF03F06969A5
:100652000A0E0A6E57EF03F000016051086E096A34
:100662000950000AD8B438EF03F028EF03F008501D
:10067200000AD8B402EF03F0020AD8B407EF03F07D
:10068200010AD8B40CEF03F0050AD8B411EF03F055
:10069200010AD8B416EF03F00F0AD8B41BEF03F027
:1006A200010AD8B420EF03F028EF03F00A50120039
:1006B200600097F1F6FF60009BF1F7FF60009FF189
:1006C200F8FFA40E3901E56F000E076E000E066EEC
:1006D200C6EF03F0690E0624D96E000E0720DA6E0B
:1006E200DF50F56E000EF65C000EF758010EF8585A
:1006F200D8A07EEF03F080EF03F097EF03F0200E17
:100702006719D8B487EF03F089EF03F097EF03F08E
:10071200300E6719D8B490EF03F092EF03F097EF21
:1007220003F0FE0E696F0A0EDAEF03F00D006F00A0
:10073200D8FF02F07F0E0216D8B4A2EF03F0A4EFA6
:1007420003F0C0EF03F0FF0E026EFF0E036E20EE09
:1007520061F06F0078FF04F06F0074FF05F0025043
:100762000426035005220650041807E10750051815
:10077200D8A4BEEF03F0C0EF03F0C4EF03F00A0009
:100782005DEC00F00900064A072A00016151065C8F
:1007920062510758D8A0D0EF03F0D2EF03F06BEF0D
:1007A20003F0010E696F000E006E000E016E94EFF1
:1007B20003F01200C2EC00F00009D8B4E3EF03F03A
:1007C200E5EF03F0DBEF03F0690E92EC00F0BB8A79
:1007D2003D01F9AFEFEF03F0F1EF03F0E9EF03F0C2
:1007E20066EC00F0000E0E6E090E0D6E3FEF04F087
:1007F20070EC00F00009D8B401EF04F003EF04F04C
:1008020037EF04F0ACEC02F00C6E600E0E24D96EE1
:10081200DA6A000EDA22600033F0DFFF0E2A040EDD
:100822000E18D8A417EF04F019EF04F037EF04F014
:10083200020E00016019D8B421EF04F023EF04F096
:1008420035EF04F0050E6019D8B42AEF04F02CEF4E
:1008520004F035EF04F0070E6019D8A433EF04F06A
:1008620035EF04F037EF04F061510D261A0E0B6ECE
:10087200F80EE82EFED70B2EFCD700D00D500E5CE2
:10088200D8A046EF04F048EF04F0F9EF03F0BB9A6A
:10089200340E0B6EF20EE82EFED70B2EFCD7FAECBE
:1008A20002F00D6E000E0E6E72EF04F0C2EC00F05C
:1008B2000009D8B45FEF04F061EF04F06BEF04F0CD
:1008C200600E0E24D96EDA6A000EDA22DF5092EC44
:1008D20000F00E2A340E0B6EF20EE82EFED70B2E0F
:1008E200FCD70D500E5CD8A079EF04F07BEF04F03A
:0E08F20057EF04F0E8EF03F012009FEF00F064
:020000040020DA
:10000000FF0FFF0FFF0FFF0FFF0FFF0FFF0FFF0F80
:020000040030CA
:0A0000008CFFF7FF9FFFFFFFFFFFDB
:00000001FF
