:020000040000FA
:040000007EEF04F09B
:1000CE001200120012008CEF04F084EF04F002C054
:1000DE0018F003C019F0120002C01CF003C01DF08E
:1000EE00120002C01AF003C01BF01200A1EC00F0C7
:1000FE007FEF00F07EEF04F039010050E66F015003
:10010E00E66FE58300F000F012001504D8A492EF1C
:10011E0000F094EF00F095EF00F0FF0012003901AF
:10012E00A3B79CEF00F09FEF00F0010EA0EF00F0E0
:10013E00000E1200D6EC00F015EC01F0ACEC00F065
:10014E009AEC01F0FEEC00F01200620E3901D96F4C
:10015E00000EDB6F000EDD6F080EDF6F000EDE6F20
:10016E001200026E3901A3A9BFEF00F0C1EF00F03B
:10017E00B9EF00F060000BF0EAFD120000EE60F047
:10018E00890EEE6AE806FDE100EE10F0080EEE6A4A
:10019E00E806FDE1000EF86E00017DEF00F0000EA6
:1001AE003901C06F000EC16F000EC26F000EC36F1B
:1001BE00000EC46F000EC56F000EC66F000EC76F27
:1001CE001200000E026E3901A3A9F0EF00F0F2EF5B
:1001DE0000F0FCEF00F03D01F2ABF8EF00F0FAEFAB
:1001EE0000F0FCEF00F0010E026E02501200000E45
:1001FE00006E000E016E40EC01F0E806D8A40AEF86
:10020E0001F00CEF01F00EEF01F0F1EC03F0000E37
:10021E00FC6E000EE06E80EF04F01200000EBA6E5F
:10022E00000EBB6E000EBC6EC268DF0EC36EBF0E3C
:10023E00C46E7F0E3A01606F50694069000E816F87
:10024E00000E516F000E416F000E616F000E426F77
:10025E00000E526F000E626F436953696369446901
:10026E0054696469080E846F130E166F170EE76FCC
:10027E001200000E046E3D01F8AD48EF01F04AEF9A
:10028E0001F04DEF01F0010E6CEF01F0340E026E35
:10029E00F20EE82EFED7022EFCD7042A630E04645B
:1002AE005BEF01F05DEF01F042EF01F0BB8A050E4E
:1002BE00036E0F0E026EF10EE82EFED7022EFCD745
:1002CE00032EFAD700F0BB9A000E1200600097F1D1
:1002DE00F6FF60009BF1F7FF60009FF1F8FFC00E84
:1002EE003901E56F000E046E88EF01F00900690E0A
:1002FE000424D96EDA6A000EDA226F00D7FFDFFF10
:10030E00042A0450026E036A00016151025C6251BC
:10031E000358D8A095EF01F097EF01F07DEF01F0B3
:10032E006151090F1200000E3D01EC6F000EED6FD2
:10033E00000EEE6F000EEF6F000EF06F000EF16FFD
:10034E00F00EF26F800EF36F000EF46FA00EF56FCD
:10035E00010EF66F000EF76F000EF86F000EF96FBC
:10036E00000EFA6FD00E026E000E036E73EC00F0EC
:10037E00D20E026E000E036E78EC00F0CE0E026E00
:10038E00000E036E6EEC00F0000E146E1200600094
:10039E0097F1F6FF60009BF1F7FF60009FF1F8FF09
:1003AE00800E3901E56F000E136E000E126E61C0E5
:1003BE0006F062C007F0000E096E000E086EF6EF32
:1003CE0001F00900F550026E036A021C046E031C54
:1003DE00056E0450122605501322084A092A0650AB
:1003EE00085C07500958D8A0FFEF01F001EF02F0AA
:1003FE00E8EF01F012C069F0135000016A6F0B0EA6
:10040E001200600097F1F6FF60009BF1F7FF6000AD
:10041E009FF1F8FF000E036E000E026E36EF02F033
:10042E00000EF65C000EF758010EF858D8A022EF19
:10043E0002F024EF02F029EF02F0FE0E696F0A0EB1
:10044E004AEF02F0940E3901E56F83EC00F0800E56
:10045E00F626000EF722000EF822024A032A0001A9
:10046E006151025C62510358D8A040EF02F042EF96
:10047E0002F017EF02F0010E696F000E636F000EAF
:10048E00646F26EF02F01200010E0001696F010E7B
:10049E006A6F000E6B6F010E6C6F000E6D6F000EAB
:1004AE006E6F3F0EF86EF768FE0EF66EC00E3901D7
:1004BE00E56F09006F00D4FF6FF009006F00D4FFE5
:1004CE0070F0000E0001716F000E726F800E736F70
:1004DE00800E746F300EF86E000EF76E000EF66E14
:1004EE000C0E026E0900690E0224D96EDA6A000E35
:1004FE00DA226F00D7FFDFFF022A0F0E02648AEFA7
:10050E0002F08CEF02F079EF02F0190E120060008B
:10051E0097F1F6FF60009BF1F7FF60009FF1F8FF87
:10052E00100EF65C000EF758200EF858D8A0A2EF69
:10053E0002F0A4EF02F0A9EF02F0C40E3901E56F4C
:10054E00ACEF02F0840E3901E56F000E046EBDEFC4
:10055E0002F0690E0424D96EDA6A000EDA22DF5038
:10056E00F56E0C0083EC00F0F62A042A0450026E9D
:10057E00036A00016151025C62510358D8A0CAEFB0
:10058E0002F0CCEF02F0B0EF02F0010E696F000E38
:10059E00006E000E016E0A0E12003901A3A7DAEFEB
:1005AE0002F0DCEF02F0D4EF02F0000E146E3D010B
:1005BE00F9A7E4EF02F0E6EF02F0F4EF02F0148296
:1005CE0002D8F4EF02F00500FA6E1C50FD6E1D50BD
:1005DE00FE6EF850FF6EFA5012003D01F9A3FAEFCD
:1005EE0002F0FCEF02F00AEF03F0148402D80AEFD7
:1005FE0003F00500FA6E1A50FD6E1B50FE6EF85099
:10060E00FF6EFA5012001450D8B410EF03F012EF30
:10061E0003F01FEF03F002D81FEF03F00500FA6E90
:10062E001850FD6E1950FE6EF850FF6EFA50120003
:10063E003D01E851120060008CF100F0600090F175
:10064E0001F055EF03F04BEC02F00C6E7FEF03F070
:10065E0081EC03F00C6E7FEF03F008EC02F00C6EF1
:10066E007FEF03F06DEC01F00C6E7FEF03F08EEC7C
:10067E0002F00C6E7FEF03F0CEEC01F00C6E7FEF0C
:10068E0003F0010E696F010E156E090E0C6E7FEFF1
:10069E0003F069690A0E0C6E7FEF03F000016051E2
:1006AE000A6E0B6A0B50000AD8B460EF03F050EFDD
:1006BE0003F00A50000AD8B42AEF03F0020AD8B4A5
:1006CE002FEF03F0010AD8B434EF03F0050AD8B4C3
:1006DE0039EF03F0010AD8B43EEF03F00F0AD8B495
:1006EE0043EF03F0010AD8B448EF03F050EF03F0E4
:1006FE000C501200600097F1F6FF60009BF1F7FFBF
:10070E0060009FF1F8FFA40E3901E56F000E076E31
:10071E00000E066EDCEF03F0690E0624D96E000E95
:10072E000720DA6EDF50F56E000EF65C000EF758FD
:10073E00010EF858D8A0A6EF03F0A8EF03F0ADEF26
:10074E0003F0FE0E696F0A0EF0EF03F00D006F005E
:10075E00D8FF02F07F0E0216D8B4B8EF03F0BAEF4E
:10076E0003F0D6EF03F0FF0E026EFF0E036E20EEC7
:10077E0061F06F0078FF04F06F0074FF05F0025017
:10078E000426035005220650041807E107500518E9
:10079E00D8A4D4EF03F0D6EF03F0DAEF03F00A009B
:1007AE0083EC00F00900064A072A00016151065C3D
:1007BE0062510758D8A0E6EF03F0E8EF03F093EF8D
:1007CE0003F0010E696F000E006E000E016EAAEFAF
:1007DE0003F01200E8EC00F00009D8B4F9EF03F0D2
:1007EE00FBEF03F0F1EF03F0690EB8EC00F0BB8AFB
:1007FE003D01F9AF05EF04F007EF04F0FFEF03F052
:10080E008CEC00F0000E0F6E090E0E6E4DEF04F024
:10081E0096EC00F00009D8B417EF04F019EF04F0CD
:10082E004DEF04F0D4EC02F00D6E600E0F24D96E75
:10083E00DA6A000EDA22600037F0DFFF0F2A040EAC
:10084E000F18D8A42DEF04F02FEF04F04DEF04F0A5
:10085E00020E00016019D8B437EF04F039EF04F03E
:10086E004BEF04F0050E6019D8B440EF04F042EFE0
:10087E0004F04BEF04F0070E6019D8A449EF04F012
:10088E004BEF04F04DEF04F061510E260E500F5C4D
:10089E00D8A054EF04F056EF04F00FEF04F0BB9A1B
:1008AE0022EC03F00E6E000E0F6E72EF04F0E8EC09
:1008BE0000F00009D8B466EF04F068EF04F072EFB0
:1008CE0004F0600E0F24D96EDA6A000EDA22DF50C1
:1008DE00B8EC00F00F2A0E500F5CD8A079EF04F0A0
:1008EE007BEF04F05EEF04F0FEEF03F01200C5EFB5
:0208FE0000F008
:020000040020DA
:10000000FF0FFF0FFF0FFF0FFF0FFF0FFF0FFF0F80
:020000040030CA
:0A0000008CFFF7FF9FFFFFFFFFFFDB
:00000001FF
