:020000040000FA
:04000000FEEF7FF0A0
:10F7EA001200120012008CEF02F084EF02F002C045
:10F7FA0019F003C01AF0120002C01DF003C01EF077
:10F80A00120002C01BF003C01CF0120039010050A4
:10F81A00E66F0150E66FE58300F000F0120074EC29
:10F82A007CF0B6EC7CF03DEC7CF00EEC7DF0120046
:10F83A001604D8A423EF7CF025EF7CF026EF7CF0A9
:10F84A00FF0012003D01F8BD2DEF7CF030EF7CF097
:10F85A00010E31EF7CF0000E12003901A3B738EF28
:10F86A007CF03BEF7CF0010E3CEF7CF0000E1200C6
:10F87A00620E3901D96F000EDB6F000EDD6F080EC4
:10F88A00DF6F000EDE6F1200026E3901A3A950EF7E
:10F89A007CF052EF7CF04AEF7CF060000BF0EAFD5E
:10F8AA001200000E006E000E016E63EC7FF0000E77
:10F8BA00FC6E000EE06E80EF02F0120000EE60F0C7
:10F8CA00890EEE6AE806FDE100EE11F0080EEE6A16
:10F8DA00E806FDE1000EF86E00019CEF7CF0000ED8
:10F8EA003901C06F000EC16F000EC26F000EC36FE8
:10F8FA00000EC46F000EC56F000EC66F000EC76FF4
:10F90A001200000E026E3901A3A98EEF7CF090EF6F
:10F91A007CF09AEF7CF03D01F2AB96EF7CF098EF29
:10F92A007CF09AEF7CF0010E026E0250120014EC89
:10F93A007CF027EC7CF00009D8B4A6EF7CF0A8EFA5
:10F94A007CF0AAEF7CF056EC7CF01A0E106EF80EE2
:10F95A00E82EFED7102EFCD700D09EEF7CF0FEEFEB
:10F96A007FF0000EBA6E000EBB6E000EBC6EC2684F
:10F97A00DF0EC36EBF0EC46E7F0E3A01606F506910
:10F98A004069000E816F000E516F000E416F000E2C
:10F99A00616F000E426F000E526F000E626F436974
:10F9AA0053696369446954696469080E846F130E64
:10F9BA00166F170EE76F1200600097F1F6FF6000EE
:10F9CA009BF1F7FF60009FF1F8FFC00E3901E56F68
:10F9DA00000E046EFCEF7CF00900690E0424D96E57
:10F9EA00DA6A000EDA226F00D7FFDFFF042A04501A
:10F9FA00026E036A00016151025C62510358D8A089
:10FA0A0009EF7DF00BEF7DF0F1EF7CF06151090F0A
:10FA1A001200000E3D01EC6F000EED6F000EEE6F4E
:10FA2A00000EEF6F000EF06F000EF16FF00EF26F26
:10FA3A00800EF36F000EF46FA00EF56F010EF66FD5
:10FA4A00000EF76F000EF86F000EF96F000EFA6FD6
:10FA5A00EC0E026EF70E036E01EC7CF0EE0E026EF7
:10FA6A00F70E036E06EC7CF0EA0E026EF70E036EDA
:10FA7A00FCEC7BF0000E156E1200600097F1F6FFA9
:10FA8A0060009BF1F7FF60009FF1F8FF800E3901DB
:10FA9A00E56F000E146E000E136E61C002F062C0B4
:10FAAA0003F0000E056E000E046E68EF7DF009008B
:10FABA00F5501326000E14220900F5501426020EE2
:10FACA000426000E05220250045C03500558D8A0F3
:10FADA0071EF7DF073EF7DF05CEF7DF013C069F09C
:10FAEA00145000016A6F0B0E1200600097F1F6FFC6
:10FAFA0060009BF1F7FF60009FF1F8FF000E036EB4
:10FB0A00000E026EA8EF7DF0000EF65C000EF758AC
:10FB1A00010EF858D8A094EF7DF096EF7DF09BEF98
:10FB2A007DF0FE0E696F0A0EBCEF7DF0940E39016E
:10FB3A00E56F0BEC7CF0800EF626000EF722000E25
:10FB4A00F822024A032A00016151025C62510358F9
:10FB5A00D8A0B2EF7DF0B4EF7DF089EF7DF0010E11
:10FB6A00696F000E636F000E646F98EF7DF01200EC
:10FB7A00010E0001696F010E6A6F000E6B6F010EB4
:10FB8A006C6F000E6D6F000E6E6F3F0EF86EF768A9
:10FB9A00FE0EF66EC00E3901E56F09006F00D4FF44
:10FBAA006FF009006F00D4FF70F0000E0001716F52
:10FBBA00000E726F800E736F800E746F300EF86EC7
:10FBCA00000EF76E000EF66E0C0E026E0900690E3C
:10FBDA000224D96EDA6A000EDA226F00D7FFDFFF3D
:10FBEA00022A0F0E0264FCEF7DF0FEEF7DF0EBEFD0
:10FBFA007DF0190E1200600097F1F6FF60009BF18C
:10FC0A00F7FF60009FF1F8FF100EF65C000EF75840
:10FC1A00200EF858D8A014EF7EF016EF7EF01BEFF6
:10FC2A007EF0C40E3901E56F1EEF7EF0840E3901B5
:10FC3A00E56F000E046E2FEF7EF0690E0424D96E74
:10FC4A00DA6A000EDA22DF50F56E0C000BEC7CF05B
:10FC5A00F62A042A0450026E036A00016151025C0A
:10FC6A0062510358D8A03CEF7EF03EEF7EF022EFBF
:10FC7A007EF0010E696F000E006E000E016E0A0E14
:10FC8A0012003901A3A74CEF7EF04EEF7EF046EF4B
:10FC9A007EF0000E156E3D01F9A756EF7EF058EF83
:10FCAA007EF066EF7EF0158202D866EF7EF00500E0
:10FCBA00FA6E1D50FD6E1E50FE6EF850FF6EFA5021
:10FCCA0012003D01F9A36CEF7EF06EEF7EF07CEF3F
:10FCDA007EF0158402D87CEF7EF00500FA6E1B5088
:10FCEA00FD6E1C50FE6EF850FF6EFA501200155051
:10FCFA00D8B482EF7EF084EF7EF091EF7EF002D8E6
:10FD0A0091EF7EF00500FA6E1950FD6E1A50FE6EE4
:10FD1A00F850FF6EFA5012003D01E85112006000DF
:10FD2A008CF100F0600090F101F0C7EF7EF0BDECBD
:10FD3A007DF00A6EF1EF7EF0F3EC7EF00A6EF1EFE1
:10FD4A007EF07AEC7DF00A6EF1EF7EF0E1EC7CF069
:10FD5A000A6EF1EF7EF000EC7EF00A6EF1EF7EF0B3
:10FD6A0042EC7DF00A6EF1EF7EF0010E696F010E32
:10FD7A00166E090E0A6EF1EF7EF069690A0E0A6EB6
:10FD8A00F1EF7EF000016051086E096A0950000A1D
:10FD9A00D8B4D2EF7EF0C2EF7EF00850000AD8B491
:10FDAA009CEF7EF0020AD8B4A1EF7EF0010AD8B423
:10FDBA00A6EF7EF0050AD8B4ABEF7EF0010AD8B4FC
:10FDCA00B0EF7EF00F0AD8B4B5EF7EF0010AD8B4CE
:10FDDA00BAEF7EF0C2EF7EF00A501200600097F18F
:10FDEA00F6FF60009BF1F7FF60009FF1F8FFA40E99
:10FDFA003901E56F000E076E000E066E4EEF7FF0BA
:10FE0A00690E0624D96E000E0720DA6EDF50F56EF1
:10FE1A00000EF65C000EF758010EF858D8A018EF3D
:10FE2A007FF01AEF7FF01FEF7FF0FE0E696F0A0E68
:10FE3A0062EF7FF00D006F00D8FF02F07F0E02160E
:10FE4A00D8B42AEF7FF02CEF7FF048EF7FF0FF0E57
:10FE5A00026EFF0E036E20EE61F06F0078FF04F071
:10FE6A006F0074FF05F00250042603500522065065
:10FE7A00041807E107500518D8A446EF7FF048EFA9
:10FE8A007FF04CEF7FF00A000BEC7CF00900064A89
:10FE9A00072A00016151065C62510758D8A058EF41
:10FEAA007FF05AEF7FF005EF7FF0010E696F000EC9
:10FEBA00006E000E016E1CEF7FF01200BB8A3D013E
:10FECA00F9AF6AEF7FF06CEF7FF064EF7FF01DEC23
:10FEDA007CF0000E0F6E090E0E6EBAEF7FF032EC58
:10FEEA007CF00009D8B47CEF7FF07EEF7FF0B2EFB0
:10FEFA007FF046EC7EF00D6E600E0F24D96EDA6A42
:10FF0A00000EDA22600037F0DFFF0F2A040E0F1806
:10FF1A00D8A492EF7FF094EF7FF0B2EF7FF0020E59
:10FF2A0000016019D8B49CEF7FF09EEF7FF0B0EF2C
:10FF3A007FF0050E6019D8B4A5EF7FF0A7EF7FF028
:10FF4A00B0EF7FF0070E6019D8A4AEEF7FF0B0EFE4
:10FF5A007FF0B2EF7FF061510E261A0E0B6EF80E8B
:10FF6A00E82EFED70B2EFCD700D00E500F5CD8A07F
:10FF7A00C1EF7FF0C3EF7FF074EF7FF0BB9A150EED
:10FF8A000C6E4B0E0B6EBE0EE82EFED70B2EFCD758
:10FF9A000C2EFAD700D094EC7EF00E6E000E0F6E87
:10FFAA00F2EF7FF086EC7CF00009D8B4DFEF7FF047
:10FFBA00E1EF7FF0EBEF7FF0600E0F24D96EDA6A83
:10FFCA00000EDA22DF5049EC7CF00F2A340E0B6E59
:10FFDA00F20EE82EFED70B2EFCD70E500F5CD8A0DF
:10FFEA00F9EF7FF0FBEF7FF0D7EF7FF063EF7FF061
:06FFFA00120063EF7CF031
:020000040020DA
:10000000FF0FFF0FFF0FFF0FFF0FFF0FFF0FFF0F80
:020000040030CA
:0A0000008CFFF7FF9FFFFFFFFFFFDB
:00000001FF
